{
  "contractName": "Faucet",
  "abi": [
    {
      "inputs": [],
      "stateMutability": "nonpayable",
      "type": "constructor"
    },
    {
      "inputs": [
        {
          "internalType": "address",
          "name": "",
          "type": "address"
        }
      ],
      "name": "funders",
      "outputs": [
        {
          "internalType": "bool",
          "name": "",
          "type": "bool"
        }
      ],
      "stateMutability": "view",
      "type": "function",
      "constant": true
    },
    {
      "inputs": [
        {
          "internalType": "uint256",
          "name": "",
          "type": "uint256"
        }
      ],
      "name": "lutFunders",
      "outputs": [
        {
          "internalType": "address",
          "name": "",
          "type": "address"
        }
      ],
      "stateMutability": "view",
      "type": "function",
      "constant": true
    },
    {
      "inputs": [],
      "name": "numOfFunders",
      "outputs": [
        {
          "internalType": "uint256",
          "name": "",
          "type": "uint256"
        }
      ],
      "stateMutability": "view",
      "type": "function",
      "constant": true
    },
    {
      "inputs": [],
      "name": "owner",
      "outputs": [
        {
          "internalType": "address",
          "name": "",
          "type": "address"
        }
      ],
      "stateMutability": "view",
      "type": "function",
      "constant": true
    },
    {
      "stateMutability": "payable",
      "type": "receive",
      "payable": true
    },
    {
      "inputs": [],
      "name": "addFunds",
      "outputs": [],
      "stateMutability": "payable",
      "type": "function",
      "payable": true
    },
    {
      "inputs": [
        {
          "internalType": "uint256",
          "name": "withdrawAmount",
          "type": "uint256"
        }
      ],
      "name": "withdraw",
      "outputs": [],
      "stateMutability": "nonpayable",
      "type": "function"
    },
    {
      "inputs": [],
      "name": "getAllFunders",
      "outputs": [
        {
          "internalType": "address[]",
          "name": "",
          "type": "address[]"
        }
      ],
      "stateMutability": "view",
      "type": "function",
      "constant": true
    },
    {
      "inputs": [
        {
          "internalType": "uint8",
          "name": "index",
          "type": "uint8"
        }
      ],
      "name": "getFunderAtIndex",
      "outputs": [
        {
          "internalType": "address",
          "name": "",
          "type": "address"
        }
      ],
      "stateMutability": "view",
      "type": "function",
      "constant": true
    }
  ],
  "bytecode": "0x608060405234801561001057600080fd5b5033600160006101000a81548173ffffffffffffffffffffffffffffffffffffffff021916908373ffffffffffffffffffffffffffffffffffffffff1602179055506109b1806100616000396000f3fe60806040526004361061007f5760003560e01c80636fbbb55d1161004e5780636fbbb55d1461016b5780638da5cb5b14610196578063a26759cb146101c1578063af7f2c9b146101cb57610086565b8063031b36771461008b5780630a93cf33146100c85780631f8947ea146101055780632e1a7d4d1461014257610086565b3661008657005b600080fd5b34801561009757600080fd5b506100b260048036038101906100ad91906105ed565b6101f6565b6040516100bf919061077a565b60405180910390f35b3480156100d457600080fd5b506100ef60048036038101906100ea919061063f565b610216565b6040516100fc919061073d565b60405180910390f35b34801561011157600080fd5b5061012c60048036038101906101279190610616565b610256565b604051610139919061073d565b60405180910390f35b34801561014e57600080fd5b5061016960048036038101906101649190610616565b610289565b005b34801561017757600080fd5b5061018061031e565b60405161018d9190610758565b60405180910390f35b3480156101a257600080fd5b506101ab610463565b6040516101b8919061073d565b60405180910390f35b6101c9610489565b005b3480156101d757600080fd5b506101e06105a8565b6040516101ed91906107b5565b60405180910390f35b60026020528060005260406000206000915054906101000a900460ff1681565b6000600360008360ff16815260200190815260200160002060009054906101000a900473ffffffffffffffffffffffffffffffffffffffff169050919050565b60036020528060005260406000206000915054906101000a900473ffffffffffffffffffffffffffffffffffffffff1681565b670de0b6b3a76400008111156102d4576040517f08c379a00000000000000000000000000000000000000000000000000000000081526004016102cb90610795565b60405180910390fd5b3373ffffffffffffffffffffffffffffffffffffffff166108fc829081150290604051600060405180830381858888f1935050505015801561031a573d6000803e3d6000fd5b5050565b60606000805467ffffffffffffffff811115610363577f4e487b7100000000000000000000000000000000000000000000000000000000600052604160045260246000fd5b6040519080825280602002602001820160405280156103915781602001602082028036833780820191505090505b50905060005b60005481101561045b576003600082815260200190815260200160002060009054906101000a900473ffffffffffffffffffffffffffffffffffffffff1682828151811061040e577f4e487b7100000000000000000000000000000000000000000000000000000000600052603260045260246000fd5b602002602001019073ffffffffffffffffffffffffffffffffffffffff16908173ffffffffffffffffffffffffffffffffffffffff168152505080806104539061086f565b915050610397565b508091505090565b600160009054906101000a900473ffffffffffffffffffffffffffffffffffffffff1681565b6000339050600260008273ffffffffffffffffffffffffffffffffffffffff1673ffffffffffffffffffffffffffffffffffffffff16815260200190815260200160002060009054906101000a900460ff166105a55760008060008154809291906104f39061086f565b9190505590506001600260008473ffffffffffffffffffffffffffffffffffffffff1673ffffffffffffffffffffffffffffffffffffffff16815260200190815260200160002060006101000a81548160ff021916908315150217905550816003600083815260200190815260200160002060006101000a81548173ffffffffffffffffffffffffffffffffffffffff021916908373ffffffffffffffffffffffffffffffffffffffff160217905550505b50565b60005481565b6000813590506105bd81610936565b92915050565b6000813590506105d28161094d565b92915050565b6000813590506105e781610964565b92915050565b6000602082840312156105ff57600080fd5b600061060d848285016105ae565b91505092915050565b60006020828403121561062857600080fd5b6000610636848285016105c3565b91505092915050565b60006020828403121561065157600080fd5b600061065f848285016105d8565b91505092915050565b60006106748383610680565b60208301905092915050565b6106898161081a565b82525050565b6106988161081a565b82525050565b60006106a9826107e0565b6106b381856107f8565b93506106be836107d0565b8060005b838110156106ef5781516106d68882610668565b97506106e1836107eb565b9250506001810190506106c2565b5085935050505092915050565b6107058161082c565b82525050565b6000610718602183610809565b9150610723826108e7565b604082019050919050565b61073781610858565b82525050565b6000602082019050610752600083018461068f565b92915050565b60006020820190508181036000830152610772818461069e565b905092915050565b600060208201905061078f60008301846106fc565b92915050565b600060208201905081810360008301526107ae8161070b565b9050919050565b60006020820190506107ca600083018461072e565b92915050565b6000819050602082019050919050565b600081519050919050565b6000602082019050919050565b600082825260208201905092915050565b600082825260208201905092915050565b600061082582610838565b9050919050565b60008115159050919050565b600073ffffffffffffffffffffffffffffffffffffffff82169050919050565b6000819050919050565b600060ff82169050919050565b600061087a82610858565b91507fffffffffffffffffffffffffffffffffffffffffffffffffffffffffffffffff8214156108ad576108ac6108b8565b5b600182019050919050565b7f4e487b7100000000000000000000000000000000000000000000000000000000600052601160045260246000fd5b7f43616e6e6f74207769746864726177206d6f7265207468616e2031206574686560008201527f7200000000000000000000000000000000000000000000000000000000000000602082015250565b61093f8161081a565b811461094a57600080fd5b50565b61095681610858565b811461096157600080fd5b50565b61096d81610862565b811461097857600080fd5b5056fea26469706673582212207ba73686fb959634d0259fe123808ffc853ca44793aa37e9e1ff6363b39c75ee64736f6c63430008040033",
  "immutableReferences": {},
  "source": "// SPDX-License-Identifier: MIT\n\npragma solidity >=0.4.22 <0.9.0;\n\ncontract Faucet {\n    // storage variables\n    uint256 public numOfFunders;\n    address public owner;\n    mapping(address => bool) public funders;\n    mapping(uint256 => address) public lutFunders;\n\n    constructor() {\n        owner = msg.sender;\n    }\n\n    modifier onlyOwner() {\n        require(msg.sender == owner, \"Only the owner can call this function\");\n        _;\n    }\n\n    receive() external payable {}\n\n    function addFunds() external payable {\n        address funder = msg.sender;\n        if (!funders[funder]) {\n            uint256 idx = numOfFunders++;\n            funders[funder] = true;\n            lutFunders[idx] = funder;\n        }\n    }\n\n    function withdraw(uint256 withdrawAmount) external {\n        require(\n            withdrawAmount <= 1000000000000000000,\n            \"Cannot withdraw more than 1 ether\"\n        );\n        payable(msg.sender).transfer(withdrawAmount);\n    }\n\n    function getAllFunders() external view returns (address[] memory) {\n        address[] memory _funders = new address[](numOfFunders);\n\n        for (uint256 i = 0; i < numOfFunders; i++) {\n            _funders[i] = lutFunders[i];\n        }\n        return _funders;\n    }\n\n    function getFunderAtIndex(uint8 index) external view returns (address) {\n        return lutFunders[index];\n    }\n}\n",
  "sourcePath": "/Users/awc/Documents/Projects/Learn/udemy-faucet/contracts/Faucet.sol",
  "compiler": {
    "name": "solc",
    "version": "0.8.4+commit.c7e474f2.Emscripten.clang"
  },
  "schemaVersion": "3.4.4",
  "updatedAt": "2022-02-14T23:36:26.884Z",
  "networkType": "ethereum",
  "devdoc": {
    "kind": "dev",
    "methods": {},
    "version": 1
  },
  "userdoc": {
    "kind": "user",
    "methods": {},
    "version": 1
  }
}