{
  "contractName": "Faucet",
  "abi": [
    {
      "inputs": [],
      "name": "counter",
      "outputs": [
        {
          "internalType": "int256",
          "name": "",
          "type": "int256"
        }
      ],
      "stateMutability": "view",
      "type": "function",
      "constant": true
    },
    {
      "inputs": [],
      "name": "funds",
      "outputs": [
        {
          "internalType": "uint256",
          "name": "",
          "type": "uint256"
        }
      ],
      "stateMutability": "view",
      "type": "function",
      "constant": true
    },
    {
      "stateMutability": "payable",
      "type": "receive",
      "payable": true
    },
    {
      "inputs": [],
      "name": "justTesting",
      "outputs": [
        {
          "internalType": "uint256",
          "name": "",
          "type": "uint256"
        }
      ],
      "stateMutability": "pure",
      "type": "function",
      "constant": true
    }
  ],
  "bytecode": "0x60806040526103e86000557ffffffffffffffffffffffffffffffffffffffffffffffffffffffffffffffff660015534801561003a57600080fd5b506101788061004a6000396000f3fe6080604052600436106100385760003560e01c806361bc221a14610044578063a23f8a3d1461006f578063c89f2ce41461009a5761003f565b3661003f57005b600080fd5b34801561005057600080fd5b506100596100c5565b60405161006691906100f8565b60405180910390f35b34801561007b57600080fd5b506100846100cb565b6040516100919190610113565b60405180910390f35b3480156100a657600080fd5b506100af6100d4565b6040516100bc9190610113565b60405180910390f35b60015481565b60006004905090565b60005481565b6100e38161012e565b82525050565b6100f281610138565b82525050565b600060208201905061010d60008301846100da565b92915050565b600060208201905061012860008301846100e9565b92915050565b6000819050919050565b600081905091905056fea264697066735822122082524d06aadd613fe37a8c1927834bde2abcd1e3689c3c1ad70c9ee4c343223f64736f6c63430008040033",
  "immutableReferences": {},
  "source": "// SPDX-License-Identifier: MIT\n\npragma solidity >=0.4.22 <0.9.0;\n\ncontract Faucet {\n    // storage variables\n    uint256 public funds = 1000;\n    int256 public counter = -10;\n\n    receive() external payable {}\n\n    function justTesting() external pure returns (uint256) {\n        return 2 + 2;\n    }\n}\n",
  "sourcePath": "/Users/awc/Documents/Projects/Learn/udemy-faucet/contracts/Faucet.sol",
  "compiler": {
    "name": "solc",
    "version": "0.8.4+commit.c7e474f2.Emscripten.clang"
  },
  "schemaVersion": "3.4.4",
  "updatedAt": "2022-02-13T00:35:12.313Z",
  "networkType": "ethereum",
  "devdoc": {
    "kind": "dev",
    "methods": {},
    "version": 1
  },
  "userdoc": {
    "kind": "user",
    "methods": {},
    "version": 1
  }
}