{
  "contractName": "Faucet",
  "abi": [
    {
      "inputs": [
        {
          "internalType": "address",
          "name": "",
          "type": "address"
        }
      ],
      "name": "funders",
      "outputs": [
        {
          "internalType": "bool",
          "name": "",
          "type": "bool"
        }
      ],
      "stateMutability": "view",
      "type": "function",
      "constant": true
    },
    {
      "inputs": [
        {
          "internalType": "uint256",
          "name": "",
          "type": "uint256"
        }
      ],
      "name": "lutFunders",
      "outputs": [
        {
          "internalType": "address",
          "name": "",
          "type": "address"
        }
      ],
      "stateMutability": "view",
      "type": "function",
      "constant": true
    },
    {
      "inputs": [],
      "name": "numOfFunders",
      "outputs": [
        {
          "internalType": "uint256",
          "name": "",
          "type": "uint256"
        }
      ],
      "stateMutability": "view",
      "type": "function",
      "constant": true
    },
    {
      "stateMutability": "payable",
      "type": "receive",
      "payable": true
    },
    {
      "inputs": [],
      "name": "addFunds",
      "outputs": [],
      "stateMutability": "payable",
      "type": "function",
      "payable": true
    },
    {
      "inputs": [
        {
          "internalType": "uint256",
          "name": "withdrawAmount",
          "type": "uint256"
        }
      ],
      "name": "withdraw",
      "outputs": [],
      "stateMutability": "nonpayable",
      "type": "function"
    },
    {
      "inputs": [],
      "name": "getAllFunders",
      "outputs": [
        {
          "internalType": "address[]",
          "name": "",
          "type": "address[]"
        }
      ],
      "stateMutability": "view",
      "type": "function",
      "constant": true
    },
    {
      "inputs": [
        {
          "internalType": "uint8",
          "name": "index",
          "type": "uint8"
        }
      ],
      "name": "getFunderAtIndex",
      "outputs": [
        {
          "internalType": "address",
          "name": "",
          "type": "address"
        }
      ],
      "stateMutability": "view",
      "type": "function",
      "constant": true
    }
  ],
  "bytecode": "0x608060405234801561001057600080fd5b50610954806100206000396000f3fe6080604052600436106100745760003560e01c80632e1a7d4d1161004e5780632e1a7d4d146101375780636fbbb55d14610160578063a26759cb1461018b578063af7f2c9b146101955761007b565b8063031b3677146100805780630a93cf33146100bd5780631f8947ea146100fa5761007b565b3661007b57005b600080fd5b34801561008c57600080fd5b506100a760048036038101906100a29190610590565b6101c0565b6040516100b4919061071d565b60405180910390f35b3480156100c957600080fd5b506100e460048036038101906100df91906105e2565b6101e0565b6040516100f191906106e0565b60405180910390f35b34801561010657600080fd5b50610121600480360381019061011c91906105b9565b610220565b60405161012e91906106e0565b60405180910390f35b34801561014357600080fd5b5061015e600480360381019061015991906105b9565b610253565b005b34801561016c57600080fd5b506101756102e8565b60405161018291906106fb565b60405180910390f35b61019361042d565b005b3480156101a157600080fd5b506101aa61054b565b6040516101b79190610758565b60405180910390f35b60016020528060005260406000206000915054906101000a900460ff1681565b6000600260008360ff16815260200190815260200160002060009054906101000a900473ffffffffffffffffffffffffffffffffffffffff169050919050565b60026020528060005260406000206000915054906101000a900473ffffffffffffffffffffffffffffffffffffffff1681565b670de0b6b3a764000081111561029e576040517f08c379a000000000000000000000000000000000000000000000000000000000815260040161029590610738565b60405180910390fd5b3373ffffffffffffffffffffffffffffffffffffffff166108fc829081150290604051600060405180830381858888f193505050501580156102e4573d6000803e3d6000fd5b5050565b60606000805467ffffffffffffffff81111561032d577f4e487b7100000000000000000000000000000000000000000000000000000000600052604160045260246000fd5b60405190808252806020026020018201604052801561035b5781602001602082028036833780820191505090505b50905060005b600054811015610425576002600082815260200190815260200160002060009054906101000a900473ffffffffffffffffffffffffffffffffffffffff168282815181106103d8577f4e487b7100000000000000000000000000000000000000000000000000000000600052603260045260246000fd5b602002602001019073ffffffffffffffffffffffffffffffffffffffff16908173ffffffffffffffffffffffffffffffffffffffff1681525050808061041d90610812565b915050610361565b508091505090565b6000339050600160008273ffffffffffffffffffffffffffffffffffffffff1673ffffffffffffffffffffffffffffffffffffffff16815260200190815260200160002060009054906101000a900460ff1661054857600080600081548092919061049790610812565b91905055905060018060008473ffffffffffffffffffffffffffffffffffffffff1673ffffffffffffffffffffffffffffffffffffffff16815260200190815260200160002060006101000a81548160ff021916908315150217905550816002600083815260200190815260200160002060006101000a81548173ffffffffffffffffffffffffffffffffffffffff021916908373ffffffffffffffffffffffffffffffffffffffff160217905550505b50565b60005481565b600081359050610560816108d9565b92915050565b600081359050610575816108f0565b92915050565b60008135905061058a81610907565b92915050565b6000602082840312156105a257600080fd5b60006105b084828501610551565b91505092915050565b6000602082840312156105cb57600080fd5b60006105d984828501610566565b91505092915050565b6000602082840312156105f457600080fd5b60006106028482850161057b565b91505092915050565b60006106178383610623565b60208301905092915050565b61062c816107bd565b82525050565b61063b816107bd565b82525050565b600061064c82610783565b610656818561079b565b935061066183610773565b8060005b83811015610692578151610679888261060b565b97506106848361078e565b925050600181019050610665565b5085935050505092915050565b6106a8816107cf565b82525050565b60006106bb6021836107ac565b91506106c68261088a565b604082019050919050565b6106da816107fb565b82525050565b60006020820190506106f56000830184610632565b92915050565b600060208201905081810360008301526107158184610641565b905092915050565b6000602082019050610732600083018461069f565b92915050565b60006020820190508181036000830152610751816106ae565b9050919050565b600060208201905061076d60008301846106d1565b92915050565b6000819050602082019050919050565b600081519050919050565b6000602082019050919050565b600082825260208201905092915050565b600082825260208201905092915050565b60006107c8826107db565b9050919050565b60008115159050919050565b600073ffffffffffffffffffffffffffffffffffffffff82169050919050565b6000819050919050565b600060ff82169050919050565b600061081d826107fb565b91507fffffffffffffffffffffffffffffffffffffffffffffffffffffffffffffffff8214156108505761084f61085b565b5b600182019050919050565b7f4e487b7100000000000000000000000000000000000000000000000000000000600052601160045260246000fd5b7f43616e6e6f74207769746864726177206d6f7265207468616e2031206574686560008201527f7200000000000000000000000000000000000000000000000000000000000000602082015250565b6108e2816107bd565b81146108ed57600080fd5b50565b6108f9816107fb565b811461090457600080fd5b50565b61091081610805565b811461091b57600080fd5b5056fea26469706673582212208aa7429075cfc77e6284b07ceb244fecacf7720b66e613c605f8a38c0f8050ec64736f6c63430008040033",
  "immutableReferences": {},
  "source": "// SPDX-License-Identifier: MIT\n\npragma solidity >=0.4.22 <0.9.0;\n\ncontract Faucet {\n    // storage variables\n    uint256 public numOfFunders;\n    mapping(address => bool) public funders;\n    mapping(uint256 => address) public lutFunders;\n\n    receive() external payable {}\n\n    function addFunds() external payable {\n        address funder = msg.sender;\n        if (!funders[funder]) {\n            uint256 idx = numOfFunders++;\n            funders[funder] = true;\n            lutFunders[idx] = funder;\n        }\n    }\n\n    function withdraw(uint256 withdrawAmount) external {\n        require(\n            withdrawAmount <= 1000000000000000000,\n            \"Cannot withdraw more than 1 ether\"\n        );\n        payable(msg.sender).transfer(withdrawAmount);\n    }\n\n    function getAllFunders() external view returns (address[] memory) {\n        address[] memory _funders = new address[](numOfFunders);\n\n        for (uint256 i = 0; i < numOfFunders; i++) {\n            _funders[i] = lutFunders[i];\n        }\n        return _funders;\n    }\n\n    function getFunderAtIndex(uint8 index) external view returns (address) {\n        return lutFunders[index];\n    }\n}\n",
  "sourcePath": "/Users/awc/Documents/Projects/Learn/udemy-faucet/contracts/Faucet.sol",
  "compiler": {
    "name": "solc",
    "version": "0.8.4+commit.c7e474f2.Emscripten.clang"
  },
  "schemaVersion": "3.4.4",
  "updatedAt": "2022-02-13T20:31:51.259Z",
  "networkType": "ethereum",
  "devdoc": {
    "kind": "dev",
    "methods": {},
    "version": 1
  },
  "userdoc": {
    "kind": "user",
    "methods": {},
    "version": 1
  }
}